:100000000C943F090C9478220C94A9220C94DA22C7
:100010000C940B230C943C230C946D230C949E2382
:100020000C94CF230C946C090C946C090C946C09FF
:100030000C946C090C946C090C946C090C946C096C
:100040000C946C090C94DC770C946C090C946C097E
:100050000C946C090C94E96F0C9448700C94002477
:100060000C946C090C948A4A0C94C24A0C946C0946
:100070000C946C090C946C090C946C090C946C092C
:100080000C946C090C946C090C946C090C946C091C
:100090000C946C090C946C090C946C090C946C090C
:1000A0000C946C090C946C090C946C090C946C09FC
:1000B0000C946C090C946C090C946C090C946C09EC
:1000C0000C946C090C946C090C946C090C946C09DC
:1000D0000C946C090C946C090C946C090C946C09CC
:1000E0000C946C09084AD73B3BCE016E84BCBFFD23
:1000F000C12F3D6C74319ABD56833DDA3D00C77FF8
:1001000011BED9E4BB4C3E916BAAAABE0000008090
:100110003F05A84CCDB2D44EB93836A9020C50B91F
:10012000918688083CA6AAAA2ABE000000803F004B
:10013000000100360037002600030002003C003DAD
:100140000038000E000F002E0030003E0012001399
:10015000000D000C000A00080009001A001C00181D
:10016000000D000E003500556E6B6E6F776E2063CC
:100170006F6D6D616E643A00536574204D696372F2
:100180006F7374657070696E6700436F6E66696740
:1001900075726174696F6E20726573657420746F17
:1001A0002064656661756C74732E00436F6E6669BA
:1001B0006775726174696F6E206C6F61646564202D
:1001C00066726F6D20454550524F4D2E00436F6E45
:1001D00066696775726174696F6E2073746F72659A
:1001E0006420746F20454550524F4D2E006C696E4F
:1001F000656172204C3A002C206D6F766520616637
:10020000746572203D20002C206261636B736C6109
:100210007368203D20002C20726574726163742025
:100220003D20006D696E2064697374616E636520A2
:100230003D20004F50532066617374206D6F6465DC
:100240003A004F505320636C6173736963206D6F84
:1002500064653A004F50532064697361626C656451
:10026000002C2073706565643D00206C696E6561CB
:10027000722073746570733A00205A4A65726B3A43
:10028000004A65726B3A004C20004820007A5F6D8E
:1002900061783A004C20004820007A5F6D696E3A20
:1002A000004C2000482000795F6D696E3A004C20B8
:1002B00000482000785F6D696E3A00206D696E001D
:1002C00020686F757273200020646179732000507C
:1002D00072696E74696E672074696D653A00206D8D
:1002E000005072696E7465642066696C616D656E3C
:1002F000743A004649524D574152455F4E414D4573
:100300003A52657065746965725F302E38312046E7
:1003100049524D574152455F55524C3A687474707A
:10032000733A2F2F6769746875622E636F6D2F7231
:10033000657065746965722F526570657469657260
:100340002D4669726D776172652F2050524F544F60
:10035000434F4C5F56455253494F4E3A312E302051
:100360004D414348494E455F545950453A4D656E9D
:1003700064656C2045585452554445525F434F556F
:100380004E543A312052455045544945525F5052DF
:100390004F544F434F4C3A320020746F2000536546
:1003A00074206F757470757420006572726F723A84
:1003B00020496E76616C69642061726300466C6FDF
:1003C000774D756C7469706C793A0053706565642B
:1003D0004D756C7469706C793A0020403A00204287
:1003E0003A00543A0020453A00205A3A0020593A3F
:1003F00000583A0000002100240027002A002D00A8
:100400003000330001010000040107010A0100006F
:100410002200250028002B002E00310034000201AC
:100420000000050108010B01000020002300260048
:1004300029002C002F0032000001000003010601FA
:10044000090105050505070508080808020202025A
:100450000A0A080804040404010101010101010160
:100460000303030303030303040707070C0C0C0C2B
:100470000C0C0C0C02020202060606060606060614
:100480000B0B0B0B0B0B0B0B0102102020080810A1
:1004900020401020408002010201080402010102F4
:1004A00004081020408080402010080402018004CD
:1004B0000201804020100804020108040201010228
:1004C0000408102040800102040810204080000031
:1004D000090A02080B0C0D070603040100000000C6
:1004E000000000000000000000000000000000000C
:1004F0000000000000000000000011100F000000CC
:1005000000000000000000000000000000000000EB
:1005100000000000616476616E6365204C205B30F2
:100520003D6F66665D006578747275646572206300
:100530006F6F6C6572207370656564205B302D325F
:1005400035355D0064697374616E636520746F2076
:1005500072657472616374207768656E2068656186
:1005600074696E67205B6D6D5D0074656D702E2023
:10057000666F722072657472616374696F6E207742
:1005800068656E2068656174696E67205B435D0015
:1005900074656D702E2073746162696C697A652070
:1005A00074696D65205B735D00592D6F66667365B8
:1005B00074205B73746570735D00582D6F6666738D
:1005C0006574205B73746570735D00504944206DE1
:1005D00061782076616C7565205B302D3235355D34
:1005E0000050494420442D6761696E005049442001
:1005F000492D6761696E0050494420502D6761693B
:100600006E00504944206472697665206D696E0001
:10061000504944206472697665206D617800686590
:100620006174206D616E61676572205B302D315D94
:1006300000616363656C65726174696F6E205B6DE8
:100640006D2F735E325D0073746172742066656530
:100650006472617465205B6D6D2F735D006D6178F0
:100660002E206665656472617465205B6D6D2F7305
:100670005D00737465707320706572206D6D00424B
:10068000656420504944206D61782076616C756501
:10069000205B302D3235355D004265642050494481
:1006A00020442D6761696E004265642050494420F2
:1006B000492D6761696E00426564205049442050AD
:1006C0002D6761696E004265642050494420647260
:1006D000697665206D696E0042656420504944204A
:1006E0006472697665206D617800426564204865B2
:1006F0006174204D616E61676572205B302D325DE3
:10070000004F50532072657472616374696F6E207C
:100710006261636B6C617368205B6D6D5D004F504F
:10072000532072657472616374696F6E206C656EBC
:10073000677468205B6D6D5D004F5053206D696E6E
:100740002E2064697374616E636520666F72206623
:10075000696C2E2072657472616374696F6E205BC0
:100760006D6D5D004F5053206D6F7665206166742E
:1007700065722078252072657472616374205B2530
:100780005D004F5053206F7065726174696F6E2009
:100790006D6F6465205B303D4F66662C313D436C68
:1007A00061737369632C323D466173745D005A2D29
:1007B000617869732074726176656C20616363652A
:1007C0006C65726174696F6E205B6D6D2F735E3244
:1007D0005D00592D617869732074726176656C20B3
:1007E000616363656C65726174696F6E205B6D6DCA
:1007F0002F735E325D00582D6178697320747261C9
:1008000076656C20616363656C65726174696F6E97
:10081000205B6D6D2F735E325D005A2D61786973B8
:1008200020616363656C65726174696F6E205B6DD6
:100830006D2F735E325D00592D617869732061639D
:1008400063656C65726174696F6E205B6D6D2F738B
:100850005E325D00582D6178697320616363656C59
:1008600065726174696F6E205B6D6D2F735E325DB2
:10087000005A206261636B6C617368205B6D6D5D13
:100880000059206261636B6C617368205B6D6D5D04
:100890000058206261636B6C617368205B6D6D5DF5
:1008A000005A206D6178206C656E677468205B6DFE
:1008B0006D5D0059206D6178206C656E67746820ED
:1008C0005B6D6D5D0058206D6178206C656E67749E
:1008D00068205B6D6D5D005A20686F6D6520706FDC
:1008E00073205B6D6D5D005920686F6D6520706FC2
:1008F00073205B6D6D5D005820686F6D6520706FB3
:1009000073205B6D6D5D004D61782E205A2D6A65F8
:10091000726B205B6D6D2F735D004D61782E206AC8
:1009200065726B205B6D6D2F735D005A2D61786968
:100930007320686F6D696E672066656564726174A7
:1009400065205B6D6D2F735D00592D617869732093
:10095000686F6D696E672066656564726174652095
:100960005B6D6D2F735D00582D6178697320686F22
:100970006D696E67206665656472617465205B6D84
:100980006D2F735D005A2D61786973206D61782E2B
:10099000206665656472617465205B6D6D2F735DA3
:1009A00000592D61786973206D61782E2066656528
:1009B0006472617465205B6D6D2F735D00582D61ED
:1009C000786973206D61782E206665656472617444
:1009D00065205B6D6D2F735D005A2D617869732002
:1009E000737465707320706572206D6D00592D6190
:1009F00078697320737465707320706572206D6DF3
:100A000000582D6178697320737465707320706568
:100A100072206D6D0053746F702073746570706513
:100A20007220616674657220696E616374697669AB
:100A30007479205B6D732C303D6F66665D004D618F
:100A4000782E20696E6163746976652074696D65BE
:100A5000205B6D732C303D6F66665D005072696E71
:100A600074657220616374697665205B735D00460E
:100A7000696C616D656E74207072696E7465642056
:100A80005B6D5D0042617564726174650041646410
:100A9000696E672066696C616D656E743A005072AC
:100AA0006F746F636F6C2076657273696F6E20630D
:100AB00068616E6765642C20757067726164696E29
:100AC00067004550523A3020004550523A312000DC
:100AD0004550523A3220004550523A332000457872
:100AE00074722E000D0E5072696E746572207365FB
:100AF0007420696E746F206472792072756E206D37
:100B00006F646520756E74696C20726573746172B0
:100B10007421003A20776F726B696E67003A207417
:100B2000656D702073656E736F72206465666563B2
:100B3000740065787472756465722000686561740C
:100B4000656420626564002000200020004D54454B
:100B50004D503A00504944204175746F74756E656C
:100B60002066696E6973686564202120506C61633A
:100B70006520746865204B702C204B6920616E6481
:100B8000204B6420636F6E7374616E747320696EA2
:100B90002074686520636F6E666967757261746939
:100BA0006F6E2E6800504944204175746F74756EE5
:100BB00065206661696C6564212074696D656F7577
:100BC0007400504944204175746F74756E652066D9
:100BD00061696C6564212054656D7065726174751E
:100BE000726520746F206869676800204B643A2042
:100BF00000204B693A2000204B703A200020436CC3
:100C0000617373696320504944002054753A200091
:100C1000204B753A2000206D61783A2000206D69E4
:100C20006E3A200020643A200020626961733A2005
:100C300000504944204175746F74756E652073745B
:100C4000617274001C151C141C000022900C000D15
:100C5000540DC40D140E00000000840E5461726720
:100C600065744265643A003A005461726765744580
:100C7000787472004D3132302053352050350A4D92
:100C80003131372045787472756465722031000007
:100C90000000A00F5C006009690010097900C0081D
:100CA0008C007008A2002008BD00D007DE0080077D
:100CB000050130073401E0066D019006B2014006DF
:100CC0000702F0056D02A005E80250057B03000550
:100CD0002B04B004F8046004EB06C00335092003BC
:100CE0007F0B8002650DE001B00E40011D0FF0008A
:100CF000480FC8006C0FA000ED0F60FFFE0F48FE0C
:100D00000400801AD8009808AC0120078002500621
:100D10005403C80528045805FC040005D005B00498
:100D2000A4066804780728044C08E8032009B003E7
:100D3000F4097003C80A38039C0BF802700CB00267
:100D4000440D6802180E0802EC0E8801C00F8800DE
:100D5000F00F00000400001B54006009640010093B
:100D60007400C008840070089C002008B800D007F8
:100D7000D8008007000130072C01E00668019006CA
:100D8000AC0140060002F0056802A005E002500533
:100D9000740300052404B004F0046004DC051004AE
:100DA000E406C0030408700330092003780B8002B6
:100DB000600DE001A80E4001680FA000C00F000008
:100DC000E80F60FF0400700DD8004804AC01580320
:100DD0008002D8025403800228043802FC04000276
:100DE000D005C801A4069801780770014C08480195
:100DF00020091801F409F000C80AC8009C0BA000E3
:100E0000700C7000440D3800180E0000EC0EA8FFA6
:100E1000C00FE8FE0400001B5400600964001009C4
:100E20007400C008840070089C002008B800D00737
:100E3000D8008007000130072C01E0066801900609
:100E4000AC0140060002F0056802A005E002500572
:100E5000740300052404B004F0046004DC051004ED
:100E6000E406C0030408700330092003780B8002F5
:100E7000600DE001A80E4001680FA000C00F000047
:100E8000E80F60FF0000401F450060094F00100997
:100E90005C00C0086B0070087D0020089200D0073D
:100EA000AC008007CC003007DE00E006230190068E
:100EB0005E014006A601F005FF01A0056D02500588
:100EC000F30200059603B0045A04600440051004C0
:100ED0004806C0036E077003A8082003EB09D00280
:100EE000230B8002410C3002390DE001040E900109
:100EF000A20E4001170FF000690FA000A20F5000D2
:100F0000C60F0000DD0FB0FFEB0F60FF2052002086
:100F10004A00204900205000205300204600204570
:100F200000205A002059002058004572726F723A12
:100F3000204D697373696E6720636865636B7375B1
:100F40006D20004572726F723A2057726F6E672083
:100F5000636865636B73756D20004572726F723ADA
:100F600042696E61727920636D642077726F6E677B
:100F700020636865636B73756D2E0077616974001B
:100F80004563686F3A006F6B20006F6B00736B698D
:100F900070200020676F7420004572726F723A20D3
:100FA0006578706563746564206C696E6520006F98
:100FB0006B006F6B00526573656E643A0065727208
:100FC0006F723A00494E46004E414E00424C4B2053
:100FD00000000020A190D00A8B48E8A08685450437
:100FE0001724F403D950C38EB1C2A23D96828B352B
:100FF00082127AE372816CCB66A861015DC758EBFF
:10100000546151204E1E4B5648C14559431A410167
:101010003F093D2F3B7139CD374036C93465331414
:1010200032D430A32F802E6B2D632C672B752A8E24
:1010300029B028DC2710274B268F25D9242B248282
:1010400023E0224322AC211A218D200420801F009E
:101050001F841E0C1E971D261DB81C4E1CE61B82ED
:101060001B201BC11A641A0A1AB2195D190A19B990
:10107000186A181C18D11788174017FA16B5167376
:10108000163116F115B31576153A150015C7148FDC
:101090001458142214EE13BA13881356132513F69A
:1010A00012C71299126C1240121512EB11C111984D
:1010B00011701148112111FB10D610B1108D10695B
:1010C00010461024100210E10FC00FA00F800F6116
:1010D0000F420F230F060FE80ECB0EAF0E930E77C5
:1010E0000E5C0E410E270E0D0EF30DDA0DC10DA88C
:1010F0000D900D780D600D490D320D1B0D050DEF96
:101100000CD90CC30CAE0C990C850C700C5C0C4803
:101110000C350C210C0E0CFB0BE80BD60BC40BB2E0
:101120000BA00B8E0B7D0B6B0B5A0B4A0B390B294B
:101130000B180B080BF80AE90AD90ACA0ABB0AAC51
:101140000A9D0A8E0A800A710A630A550A470A39FB
:101150000A2C0A1E0A110A040AF709EA09DD09D055
:1011600009C409B709AB099F09920987097B096F6F
:1011700009630958094C09410936092B0920091549
:10118000090A090009F508EB08E008D608CC08C2EE
:1011900008B808AE08A4089A08900887087D087463
:1011A000086B08610858084F0846083D0834082CA9
:1011B0000823081A08120809080108F807F007E8C8
:1011C00007E007D807D007C807C007B807B007A8C7
:1011D00007A1070000420FA1071605D0030D038BDE
:1011E000022E02E801B2018601630145012C0117BC
:1011F000010401F400536F667477617265205265D3
:10120000736574005761746368646F672052657317
:1012100065740042726F776E206F7574205265732B
:1012200065740045787465726E616C2052657365F3
:101230007400506F7765725570007374617274003A
:10124000494E46494E4954594E414ECDCCCC3D0AAB
:10125000D7233C17B7D13877CC2B329595E6241F8E
:10126000B14F0A000020410000C84200401C462047
:10127000BCBE4CCA1B0E5AAEC59D7400AD4C1124A9
:101280001FBECFEFD1E2DEBFCDBF00E00CBF13E049
:10129000A0E0B2E0E2E1F4E001E00BBF02C00790A1
:1012A0000D92A433B107D9F71BBE1DE0A4E3B3E050
:1012B00001C01D92AE3CB107E1F712E1CEE7D2E1E9
:1012C00004C02297FE010E94C181CC37D107C9F723
:1012D0000E947A1F0C9407820C940000A0E0B0E0FA
:1012E000E4E7F9E00C94D681EC015B01611571052E
:1012F00019F0FB0191838083F9908F2D90E00E947B
:10130000C581892BC9F7FDE2FF1621F4F990EE247F
:10131000E39405C02BE2F21609F4F990EE248E0155
:1013200001501040C80160E472E143E050E00E94C7
:10133000FD0B892B01F58E010E5F1F4FC80163E481
:1013400072E145E050E00E94FD0B892B19F48E01FB
:10135000095F1F4FA114B10419F0F5011183008337
:10136000E0FC04C070E090E080E814C070E090E021
:1013700080E86FEF08C1C80168E472E143E050E023
:101380000E94FD0B892B69F4A114B10429F470E0CB
:1013900090E080EC6FE7F7C02296F501D183C0831F
:1013A000F6CF8824992440E050E060E070E0EF2D13
:1013B000E053EA30A0F5F2E0EF2A8E2D90E09C0198
:1013C00028703070E2FE06C0232B79F50894811C4A
:1013D000911C2BC0232B19F0089481089108DB0184
:1013E000CA0112E0880F991FAA1FBB1F1A95D1F7D7
:1013F000480F591F6A1F7B1F440F551F661F771F19
:101400004E0F511D611D711D483929E9520729E907
:10141000620729E1720748F084E0E82A06C0EE3F3F
:1014200031F4E3FC39C098E0E92AF990C0CFE53304
:1014300011F0E53189F529912D3219F4E0E1EE2A18
:1014400005C02B3219F081E090E003C0299182E0C1
:1014500090E0E22FE053EA3018F0C81BD90B1CC013
:1014600020E030E0FCE020383F075CF4C901880F41
:10147000991F880F991F280F391F220F331F2E0F16
:10148000311DE991E053EA3068F3E4FE03C0309582
:1014900021953F4F820E931ECE2CDD24E1FE07C026
:1014A000A114B10421F02197F501D183C083CB01B0
:1014B000BA010E94697E7B018C01F3E0CF22DD241A
:1014C00023E0C216D10421F417FB109517F91095EB
:1014D00057016801C801B70120E030E040E050E06A
:1014E0000E94C97D882309F44AC097FE0DC02FE5EC
:1014F000E22E22E1F22E9094819491089394C0E21E
:10150000D0E000E010E012C097E7E92E92E1F92E5A
:10151000F6CFF7012591359145915491C601B5015A
:101520000E9479805B016C018C1A9D0A8C169D06C5
:1015300084F7D595C7950F5F1F4F0630110529F029
:101540008CEF9FEFE80EF91EF1CFC501D6017C01AB
:101550008D018C2D880F8D2D881F8F3F51F0C60176
:10156000B50120E030E040E050E00E94C97D8823D2
:1015700031F482E290E09093CD0D8093CC0D7E2DDE
:101580009F2D802F612F272F392F482F562FB901DC
:10159000CA01CDB7DEB7ECE00C94F2812F923F92F6
:1015A0005F926F927F928F929F92AF92BF92CF92F3
:1015B000DF92EF92FF920F931F93CF93DF938C01F3
:1015C0001B01EA016115710519F0FB01918380830C
:1015D000209749F0CE010297839728F020E030E071
:1015E00040E050E0F6C0F801A1908F018A2D90E014
:1015F0000E94C581892BB9F7FDE2AF1631F4F801DD
:10160000A1908F015524539407C0FBE2AF1619F443
:10161000F801A1908F015524209719F0C031D10510
:10162000C1F4F0E3AF1679F4F8018081883711F046
:10163000883549F4F801A1800E5F1F4FF2E05F2A60
:10164000C0E1D0E006C0209721F480E3A816E9F4B9
:1016500027C0C830D10531F1C930D10524F4C230DA
:10166000D10531F50CC0CA30D10589F0C031D105A2
:10167000F9F4C12CD12CE12CB8E0FB2E28C0C12CF0
:10168000D12CE12CA0E4FA2E22C0CAE0D0E0FCEC80
:10169000CF2EFCECDF2EFCECEF2EFCE0FF2E17C073
:1016A000C8E0D0E0C12CD12CE12CE0E1FE2E0FC02F
:1016B0009E01442737FD4095542F60E070E080E0A4
:1016C00090E80E948281C901DA016C017D0120E06D
:1016D00030E040E050E060E03E01882477FC8094F8
:1016E000982C70EDB72EBA0CE9E0EB1570F48A2D4A
:1016F00081548A3118F499ECB92E06C08A2D81568E
:101700008A3150F589EAB82EBA0C8B2D90E08C17EF
:101710009D0714F56F3FE1F0C216D306E406F50607
:10172000B0F0CA01B901A40193010E944F819B014D
:10173000AC012B0D311D411D511D2130F0E03F0743
:10174000F0E04F07F0E85F0710F461E001C06FEFD1
:10175000F801A1908F01C5CF2114310481F06623D7
:1017600031F001501040F1011183008308C051FE97
:101770001AC002501040F1011183008314C067FFAA
:1017800012C050FC05C02FEF3FEF4FEF5FE704C0E2
:1017900020E030E040E050E882E290E09093CD0D10
:1017A0008093CC0D16C050FE08C0509540953095E2
:1017B00021953F4F4F4F5F4F0CC057FF0AC082E249
:1017C00090E09093CD0D8093CC0D2FEF3FEF4FEF36
:1017D0005FE7B901CA01DF91CF911F910F91FF908F
:1017E000EF90DF90CF90BF90AF909F908F907F90C1
:1017F0006F905F903F902F900895FB01DC01415066
:10180000504088F08D9181341CF08B350CF4805E53
:10181000659161341CF06B350CF4605E861B6111C0
:1018200071F3990B0895881BFCCFFC0181918617F9
:1018300021F08823D9F7992708953197CF0108958A
:101840000895AC018931910524F449E150E0CA01C1
:1018500007C0893C9105DCF348EC50E088EC90E04F
:1018600090931906809318068CE394E06DEB73E077
:101870000E943E4E0895EF92FF920F931F93CF93D5
:10188000DF93EC01893191050CF041C0C9E1D0E052
:10189000BE01882777FD8095982F0E946B7E7B0183
:1018A0008C016091160670911706882777FD809548
:1018B000982F0E946B7E9B01AC01C801B7010E946A
:1018C000D07D9B01AC01609112067091130680914E
:1018D0001406909115060E94798060931206709309
:1018E00013068093140690931506D0931706C093A1
:1018F00016068CE394E06BEC73E0AE010E943E4E62
:10190000DF91CF911F910F91FF90EF90089581E0AB
:10191000C53FD8070CF4BCCFC4EFD1E00F2EF0E0E8
:10192000EF2EF0E0FF2EFAEF0F2FF3E41F2FF02D34
:10193000B8CF7F928F929F92AF92BF92CF92DF9259
:10194000EF92FF920F931F93CF93DF93862E742E07
:10195000882309F00BC2882009F0F4C0772009F42D
:10196000E3C0E090F605F090F7050091F8051091BE
:10197000F9058091EA059091EB05A091EC05B091F5
:10198000ED05E81AF90A0A0B1B0B88279927DC01D9
:101990008E199F09A00BB10B8093AF059093B005F2
:1019A000A093B105B093B20500D000D0EDB7FEB75B
:1019B0003196EE0CFF1C001F111F8091ED029091DB
:1019C000EE02A091EF02B091F002CDB7DEB78983AD
:1019D0009A83AB83BC83992493949482958260E02C
:1019E00070E080E090E020E030E040E050E0AA24A9
:1019F000BB2465010E94DD6B1092AF051092B0050B
:101A00001092B1051092B205CDB6DEB60894C11C95
:101A1000D11C2091CD023091CE024091CF02509145
:101A2000D002CA01B9010E94F07C0E94387E7B017D
:101A30008C016091ED027091EE028091EF02909125
:101A4000F00220E030E040E05FE30E947980F601A0
:101A500060837183828393839482158260E070E057
:101A600080E090E020E030E040E050E0AA24BB2499
:101A700065010E94DD6BCDB6DEB60894C11CD11C99
:101A80002091CD023091CE024091CF025091D002F0
:101A9000CA01B9010E94F07C20E030E040E050EC47
:101AA0000E9479800E94387E7B018C016091ED025A
:101AB0007091EE028091EF029091F00220E030E010
:101AC00040E05FE30E947980D6016D937D938D9312
:101AD0009C93139714969C92149715969C9260E091
:101AE00070E080E090E020E030E040E050E0AA24A8
:101AF000BB2465010E94DD6B8091F6059091F7058E
:101B0000A091F805B091F9058093AF059093B005C9
:101B1000A093B105B093B205CDB7DEB726960FB648
:101B2000F894DEBF0FBECDBFDF91CF911F910F9113
:101B3000FF90EF90DF90CF90BF90AF909F908F90ED
:101B40007F9008952091F2053091F3054091F405BE
:101B50005091F5058091E6059091E705A091E80583
:101B6000B091E905281B390B4A0B5B0B8827992795
:101B7000DC01821B930BA40BB50B8093AB059093F8
:101B8000AC05A093AD05B093AE0500D000D0EDB785
:101B9000FEB73196220F331F441F551F8091E90273
:101BA0009091EA02A091EB02B091EC02CDB7DEB7C2
:101BB00089839A83AB83BC8399249394948295827E
:101BC00060E070E080E090E0EE24FF248701AA242A
:101BD000BB2465010E94DD6B1092AB051092AC0531
:101BE0001092AD051092AE050DB71EB70F5F1F4FD7
:101BF0006091C9027091CA028091CB029091CC028F
:101C000020E030E040EA50E40E9479800E94387E73
:101C10006B017C016091E9027091EA028091EB0214
:101C20009091EC0220E030E040E05FE30E94798098
:101C3000F80160837183828393839482158260E0CC
:101C400070E080E090E0A7019601EE24FF24870178
:101C5000AA24BB2465010E94DD6BCDB6DEB60894D4
:101C6000C11CD11C2091C9023091CA024091CB0203
:101C70005091CC02CA01B9010E94F07C20E030E012
:101C800040EA50EC0E9479800E94387E7B018C01F2
:101C90006091E9027091EA028091EB029091EC026E
:101CA00020E030E040E05FE30E947980D6016D9350
:101CB0007D938D939C93139714969C9214971596ED
:101CC0009C9260E070E080E090E0A8019701EE2433
:101CD000FF248701AA24BB2465010E94DD6B0DB798
:101CE0001EB70F5F1F4F6091C9027091CA028091A9
:101CF000CB029091CC0220E030E040E651E40E941B
:101D000079800E94387E9B01AC018091E90290911C
:101D1000EA02A091EB02B091EC02E801888399837A
:101D2000AA83BB839C821D8260E070E080E090E02B
:101D3000EE24FF2487010E94DD6B8091F2059091D3
:101D4000F305A091F405B091F5058093AB05909350
:101D5000AC05A093AD05B093AE05EDB7FEB73696D2
:101D60000FB6F894FEBF0FBEEDBFF8CD6091EE0543
:101D70007091EF058091F0059091F1052091E205B9
:101D80003091E3054091E4055091E505621B730B2A
:101D9000840B950B22273327A901261B370B480BF1
:101DA000590B2093A7053093A8054093A90550939C
:101DB000AA0500D000D0EDB7FEB73196660F771FA9
:101DC000881F991F2091E5023091E6024091E702B9
:101DD0005091E802ADB7BEB711962D933D934D9348
:101DE0005C931497992493949482958220E030E038
:101DF00040E050E0EE24FF248701AA24BB246501C3
:101E00000E94DD6B1092A7051092A8051092A905FB
:101E10001092AA050DB71EB70F5F1F4F6091C50244
:101E20007091C6028091C7029091C80220E030E014
:101E300040EA50E40E9479800E94387E6B017C0168
:101E40006091E5027091E6028091E7029091E802CC
:101E500020E030E040E05FE30E947980E8016883A1
:101E600079838A839B839C821D82C701B60120E00F
:101E700030E040E050E0EE24FF248701AA24BB2498
:101E800065010E94DD6BCDB6DEB60894C11CD11C85
:101E90002091C5023091C6024091C7025091C802FC
:101EA000CA01B9010E94F07C20E030E040EA50EC29
:101EB0000E9479800E94387E7B018C016091E5024E
:101EC0007091E6028091E7029091E80220E030E014
:101ED00040E05FE30E947980F60160837183828332
:101EE000938394829582C801B70120E030E040E0FE
:101EF00050E0EE24FF248701AA24BB2465010E9440
:101F0000DD6B0DB71EB70F5F1F4F6091C50270915B
:101F1000C6028091C7029091C8020E94387E20912B
:101F2000E5023091E6024091E7025091E802D801C3
:101F30002D933D934D935C93139714969C92149715
:101F400015961C9220E030E040E050E0EE24FF24A3
:101F500087010E94DD6B8091EE059091EF05A091C5
:101F6000F005B091F1058093A7059093A805A09383
:101F7000A905B093AA05CDB7DEB726960FB6F8949B
:101F8000DEBF0FBECDBFE7CCAF92BF92CF92DF9244
:101F9000EF92FF920F931F932091A7053091A80510
:101FA0004091A9055091AA05A0906005B0906105E7
:101FB000C0906205D090630580915F05882309F089
:101FC000C4C00F2EF0E0EF2EF0E0FF2EF0E80F2F50
:101FD000FFE31F2FF02DCA01B9010E946B7EA601FD
:101FE00095010E947980A80197010E9479809B0148
:101FF000AC018CE394E061EF73E002E00E94835057
:102000002091AB053091AC054091AD055091AE05E6
:10201000A0906405B0906505C0906605D0906705F6
:1020200080915F05882309F0A6C00F2EF0E0EF2E07
:10203000F0E0FF2EF0E80F2FFFE31F2FF02DCA0175
:10204000B9010E946B7EA60195010E947980A801CA
:1020500097010E9479809B01AC018CE394E06DEEC6
:1020600073E002E00E9483502091AF053091B005EB
:102070004091B1055091B205A0906805B0906905F6
:10208000C0906A05D0906B0580915F05882309F0A8
:1020900067C00F2EF0E0EF2EF0E0FF2EF0E80F2FDC
:1020A000FFE31F2FF02DCA01B9010E946B7EA6012C
:1020B00095010E947980A80197010E9479809B0177
:1020C000AC018CE394E069EE73E002E00E9483507F
:1020D0002091B3053091B4054091B5055091B605F6
:1020E000A0906C05B0906D05C0906E05D0906F0506
:1020F00080915F05882309F049C00F2EF0E0EF2E94
:10210000F0E0FF2EF0E80F2FFFE31F2FF02DCA01A4
:10211000B9010E946B7EA60195010E947980A801F9
:1021200097010E9479809B01AC018CE394E065EEFD
:1021300073E002E00E9466501F910F91FF90EF90B4
:10214000DF90CF90BF90AF9008950F2EF0E7EF2E65
:10215000F2E4FF2EF1E20F2FFDE31F2FF02D3BCF16
:102160000F2EF0E7EF2EF2E4FF2EF1E20F2FFDE34A
:102170001F2FF02D98CF0F2EF0E7EF2EF2E4FF2E59
:10218000F1E20F2FFDE31F2FF02D59CF0F2EF0E7B7
:10219000EF2EF2E4FF2EF1E20F2FFDE31F2FF02DC3
:1021A000B6CF0F93E0914D03F0914E0320A931A9D2
:1021B00042A953A98CE394E062EE73E002E00E942E
:1021C00083500E94003D9B01AC018CE394E06EEDD6
:1021D00073E00E948350E091C302EF3F89F0F0E08A
:1021E000EC54F24F40818CE394E06AED73E050E0F0
:1021F0000E94FB4C8CE394E00E94C21F0F91089553
:10220000E0914D03F0914E03E081F0E0EC54F24F89
:102210004081E9CF80915103882309F408951092F9
:1022200051030E943C408091C20281508093C202BF
:102230008823A1F78091C102833020F085E080934C
:10224000C20208950E94A542F9CF04C00E9407541B
:102250000E940A118091AC0D8823C1F708950F9355
:102260001F93182F092F662311F00E942511812F2B
:10227000902F9C012F3F310519F014F02FEF30E023
:1022800037FD05C02093B70D1F910F91089520E0F1
:1022900030E02093B70D1F910F9108952F923F9238
:1022A0004F925F926F927F928F929F92AF92BF9266
:1022B000CF92DF92EF92FF920F931F93DF93CF9312
:1022C000CDB7DEB7E7970FB6F894DEBF0FBECDBF30
:1022D0002C016DA780911103982F84FF14C0D201A7
:1022E000CD90DC901197C2FC20C1C1FC44C1D1FC4F
:1022F000B8C392FD0AC4BDA5BB2309F423C1C20122
:102300000E949F511FC1F201C080D180C2FE42C312
:10231000808591858431910509F408C48531910542
:1023200008F4A7C18A35910509F4FDC38B359105E1
:1023300008F49FC38B35910509F4FCC38C359105D6
:1023400009F0E8C0C3FE42C0D2011A968D909D905C
:10235000AD90BC901D972091C5023091C60240916E
:10236000C7025091C80280915F05882309F08FC48D
:102370000F2EF0E0EF2EF0E0FF2EF0E80F2FFFE33E
:102380001F2FF02DC501B4010E947980A80197018B
:102390000E9479807B018C01609122067091230656
:1023A00080912406909125060E946B7E9B01AC01D2
:1023B000C801B7010E94EF7C0E94387E6093A70598
:1023C0007093A8058093A9059093AA05C4FE40C008
:1023D000F20186849784A088B1882091C902309147
:1023E000CA024091CB025091CC0280915F058823B4
:1023F00009F034C40F2EF0E0EF2EF0E0FF2EF0E8ED
:102400000F2FFFE31F2FF02DC501B4010E9479802B
:10241000A80197010E9479807B018C0160912606BA
:102420007091270680912806909129060E946B7E64
:102430009B01AC01C801B7010E94EF7C0E94387E6D
:102440006093AB057093AC058093AD059093AE059A
:10245000C5FE30C0D20152968D909D90AD90BC903B
:1024600055972091CD023091CE024091CF025091EC
:10247000D00280915F05882309F0DAC30F2EF0E0C7
:10248000EF2EF0E0FF2EF0E80F2FFFE31F2FF02DCF
:10249000C501B4010E947980A80197010E9479804A
:1024A0000E94387E6093AF057093B0058093B105AC
:1024B0009093B205C6FE2EC0F201A688B788C08CE4
:1024C000D18C2091D1023091D2024091D30250910F
:1024D000D40280915F05882309F0B5C30F2EF0E088
:1024E000EF2EF0E0FF2EF0E80F2FFFE31F2FF02D6F
:1024F000C601B5010E947980A80197010E947980E8
:102500000E94387E6093B3057093B4058093B5053F
:102510009093B6050E94482460935106709352062A
:102520008093530690935406E6CEC2010E949F51B9
:102530000E9448246093510670935206809353067C
:1025400090935406E7960FB6F894DEBF0FBECDBF4A
:10255000CF91DF911F910F91FF90EF90DF90CF907F
:10256000BF90AF909F908F907F906F905F904F90B3
:102570003F902F90089516962D913C9117972F36E6
:10258000310599F62A3C310509F4EEC42B3C31059E
:1025900008F008C22936310509F48AC22A36310505
:1025A00008F0CFC22335310509F4CEC424353105F6
:1025B00008F07AC32035310509F4B7C42135310557
:1025C00010F00C94BE1B2A32310509F094CE80E045
:1025D0009CE0C822D92290E0C9169CE0D90609F0F7
:1025E0008ACEF201878D90A1A1A1B2A1B7FD83CEC1
:1025F0008F3F9105A105B10511F00CF07CCE03A130
:1026000014A120E030E0F901EE0FFF1FE15DFE4F65
:10261000E4918E2F90E08017910709F46CCE2F5F24
:102620003F4F2833310579F717FD65CE802F61E0E4
:102630000E94A125802FD2015F966C910E94632693
:10264000F201678D70A1802F0E94C2248CE394E078
:102650006EE973E0A8010E94FB4CD2015F964D9198
:102660005C9190978CE394E069E973E00E943E4EA0
:1026700042CE8430910508F0B9C1029708F40DC22A
:10268000C2010E94796D882309F444CF9E012B5F1B
:102690003F4F3FA72EA788E0D9011D928A95E9F701
:1026A000F201D280D0FCEDC280E090E0A0E0B0E08A
:1026B0008D839E83AF83B887D1FCDBC20F2EF0E001
:1026C000EF2EF0E0FF2EF0E00F2FF0E01F2FF02DA7
:1026D000E986FA860B871C8790905F059920D1F0D8
:1026E0006D817E818F81988523E333E34BEC51E448
:1026F0000E9479806D837E838F839887C801B7019C
:1027000023E333E34BEC51E40E94798069877A87B5
:102710008B879C8718E0FE013D96F9ABE8AB212F33
:1027200011922A95E9F76091A7057091A80580910B
:10273000A9059091AA050E946B7E209160053091B9
:10274000610540916205509163050E9479806D8713
:102750007E878F87988B6091AB057091AC058091D7
:10276000AD059091AE050E946B7E2091640530917D
:10277000650540916605509167050E947980698BD7
:102780007A8B8B8B9C8BAE014B5E5F4F5BAB4AAB06
:10279000DA011D921A95E9F76091B7057091B805B5
:1027A0008091B9059091BA050E946B7E20916005D9
:1027B0003091610540916205509163050E947980D6
:1027C0006D8B7E8B8F8B988F6091BB057091BC0554
:1027D0008091BD059091BE050E946B7E209164059D
:1027E0003091650540916605509167050E9479809A
:1027F0007B018C01698F7A8F8B8F9C8FD2FE13C3E4
:10280000F201A7A4B0A8C1A8D2A8992051F0C6018E
:10281000B50123E333E34BEC51E40E9479805B0183
:102820006C016D897E898F89988D2D853E854F85B8
:1028300058890E94EF7C3B014C01C801B7012989EE
:102840003A894B895C890E94EF7C69A77AA78BA79C
:102850009CA7C601B50120E030E040E850E40E94AA
:102860007980A60195010E9479807B018C01C401C9
:10287000B301A40193010E9479809B01AC01C801BE
:10288000B7010E94EF7C7B018C0169A57AA58BA51D
:102890009CA59B01AC010E9479809B01AC01C80101
:1028A000B7010E94EF7C0E94E6807B018C01C4018D
:1028B000B30129A53AA54BA55CA50E94E47F9B0125
:1028C000AC0117FB109517F91095C801B7010E94CC
:1028D000D07D7B018C01A80197010E943381882360
:1028E00011F00C94BE1ED20118962D903C901997B1
:1028F000B3E02B16310409F433C7C601B50120E05B
:1029000030E040E050E00E94C97D88230CF42DC7E0
:1029100069A57AA58BA59CA5A80197010E9479803D
:102920009B01AC01C401B3010E94EF7C20E030E0C8
:1029300040E05FE30E9479806D837E838F83988778
:10294000C401B301A80197010E94798029A53AA585
:102950004BA55CA50E94F07C20E030E040E05FE306
:102960000E94798069877A878B879C87E0E0F2E014
:102970002F16310409F467C2CE010D96BE016B5EBD
:102980007F4FAE014B5F5F4F96018501EE2E0E9497
:10299000C268C0CDC1FEABCCD20116962D913C9140
:1029A0001797F0CD283E310509F485C0293E310541
:1029B00008F0F0C02F3C310509F493C6203D3105E5
:1029C00008F01DC22C3C310509F449C32C3C3105EB
:1029D00008F47FC42D3C310509F477C42E3C310541
:1029E00009F089CCC2010E94E33B85CC049709F031
:1029F00091CD0E942511D2018D919C9193FD12C120
:102A0000AA24BB24650192FF0FC0D2015F966D918D
:102A10007D918D919C91929728EE33E040E050E0BB
:102A20000E944F815B016C010E9448247B018C0154
:102A3000EA0CFB1C0C1D1D1D04C00E9407540E94C3
:102A40000A110E944824A8019701261B370B480B46
:102A5000590BDA01C90180509449A543B74768F37F
:102A600059CD0E942511D2015E968C910E9441475A
:102A700042CC8531910509F461C04C9709F04ACDEB
:102A8000C60188739070892B09F0B6C041E021E03F
:102A900061E0822F0E94990C3DCDC2010E94796DA8
:102AA000882309F437CD80E061E00E94C46332CD11
:102AB0000E94D11020CC4091AE0D5091AF0D8CE30F
:102AC00094E06AE672E00E94FB4C2091B00D3091D8
:102AD000B10D4091B20D5091B30D8CE394E061E6DD
:102AE00072E002E00E9466501092AF0D1092AE0D9F
:102AF00080E090E0A0E0B0E08093B00D9093B10D45
:102B0000A093B20DB093B30DF6CB8CE394E067E6DF
:102B100071E00E94714CC2010E9499508CE394E0D4
:102B20000E94C21FE8CB10924F06F4CC81E0809344
:102B30005F05F0CC81E080934F06ECCC10925F05EE
:102B4000E9CC2237310509F403C22337310508F0F7
:102B500005C12B36310509F4DCC32B36310508F4E9
:102B6000CBC32D36310509F490C42F36310509F059
:102B7000C2CBD2FE05C0D2015F968C918093110327
:102B800083FFB9CB60E070E080E090E040E00E941D
:102B90006246B1CBB1E021393B0709F4D3C3E1E090
:102BA00022393E0708F0BDC0F1E02F323F0709F49B
:102BB000BBC341E02033340708F0F5C6293E310598
:102BC00009F099CBC4FE02C00C94301EE0914D0375
:102BD000F0914E0325A136A147A150A58CE394E0C6
:102BE0006DEE71E002E00E9483508CE394E00E945D
:102BF000C21F0E949D6C7FCBC601969587959695C6
:102C0000879596958795282F2170C6019295829574
:102C10008F7089279F708927682F6170C5FC42C01B
:102C200040E037CFF201A3A0B4A0C5A0D6A0EBCE60
:102C30000F2EF3E3EF2EF3E3FF2EFBEC0F2FF1E467
:102C40001F2FF02D25CC0F2EF3E3EF2EF3E3FF2EF5
:102C5000FBEC0F2FF1E41F2FF02D4ACC0F2EF3E3E6
:102C6000EF2EF3E3FF2EFBEC0F2FF1E41F2FF02DDF
:102C7000CBCBD2019B96ED90FD900D911C919E9730
:102C800027CDF20187A190A5A1A5B2A511CD0F2E48
:102C9000F3E3EF2EF3E3FF2EFBEC0F2FF1E41F2FF6
:102CA000F02D70CB41E0F5CE2535310509F4D6C3C2
:102CB0002535310508F4B9C32C35310509F474C341
:102CC0002836310509F017CB0E94E33F882309F02D
:102CD00012CB0E9448246093510670935206809351
:102CE0005306909354068091110383FD04CBF201A7
:102CF0008081918193FF02C00C94481F92FFFBCA10
:102D000091FD02C00C944F1FF201678D70A181A14B
:102D100092A10E946B7ED2015E964C910E94624607
:102D2000EACA91E0253F390709F415C1A1E0263F21
:102D30003A0708F0C0C2B1E022393B0709F485C068
:102D4000245F314009F0D7CA80E00E944F2D8CE308
:102D500094E06DEC71E00E940E4DCDCA2C38310527
:102D600009F4D0C12D38310508F032C623373105BA
:102D700009F4A8C12737310509F0BDCA0E94251101
:102D80008CE394E064EB72E00E94714C659B24C775
:102D90006EEA72E08CE394E00E94714C8CE394E064
:102DA00067EA72E00E94714C8091030181FF8CC739
:102DB00061EA72E08CE394E00E94714C8CE394E051
:102DC0006AE972E00E94714C4B9B7BC764E972E038
:102DD0008CE394E00E94714C8CE394E06DE872E027
:102DE0000E94714C4A9B73C767E872E08CE394E0E1
:102DF0000E94714C8CE394E00E94C21F7CCA2D3D5E
:102E0000310509F422C12E3D310508F0C9C42C3D1D
:102E1000310509F070CAD2FE38C7F201878D90A142
:102E20000E943B0C68CA6D817E818F8198852985BF
:102E30003A854B855C850E94E47F5B016C01F20161
:102E40002084318493CDE1E097CD8090430690902B
:102E50004406A0904506B09046068091A705909143
:102E6000A805A091A905B091AA05881A990AAA0AED
:102E7000BB0A20914706309148064091490650917F
:102E80004A068091AB059091AC05A091AD05B0913B
:102E9000AE05281B390B4A0B5B0BE0904B06F090FC
:102EA0004C0600914D0610914E068091AF05909111
:102EB000B005A091B105B091B205E81AF90A0A0B64
:102EC0001B0BD0FE8CC6D2015A968D919D910D9010
:102ED000BC91A02D8CAB9DABAEABBFAB00D000D0F6
:102EE000CDB6DEB60894C11CD11C8CA99DA9AEA993
:102EF000BFA9EDB7FEB781839283A383B483D601C4
:102F000014961C92149715961C92C501B401AA241C
:102F1000BB2465010E94DD6BEDB7FEB736960FB698
:102F2000F894FEBF0FBEEDBFE6C90E9425110E94B6
:102F300048246093510670935206809353069093F1
:102F40005406269A2E98D7C981E080935006D3C99B
:102F50000E94C40FD0C90E9491358CE394E06BEAC3
:102F600071E00E940E4DC7C9C3FE19C0F20162850F
:102F70007385848595852091C5023091C602409164
:102F8000C7025091C8020E9479800E943D7E6093E2
:102F90008005709381058093820590938305C4FE1C
:102FA0001BC0D2011E966D917D918D919C91519780
:102FB0002091C9023091CA024091CB025091CC02BB
:102FC0000E9479800E943D7E609384057093850500
:102FD0008093860590938705C5FE19C0F20162892A
:102FE0007389848995892091CD023091CE024091D8
:102FF000CF025091D0020E9479800E943D7E609362
:1030000088057093890580938A0590938B05C6FE89
:1030100072C9D20156966D917D918D919C9159976F
:103020002091D1023091D2024091D3025091D4022A
:103030000E9479800E943D7E60938C0570938D057F
:1030400080938E0590938F0556C9D2FE43C6D20158
:103050005F968D919C9190970E94210C4CC9809114
:103060004D0390914E03D2FCC7C5FC01B996C3FE37
:103070000BC0D2011A962D913D914D915C911D97F7
:10308000228F338F448F558FC4FE0BC0D2011E9602
:103090002D913D914D915C915197268F378F40A393
:1030A00051A3C5FE0BC0D20152962D913D914D9179
:1030B0005C91559722A333A344A355A3CF010E944B
:1030C000BC3C19C98CE394E063EF72E00E940E4DA2
:1030D000409131065091320660913306709134066A
:1030E000FE01319621E830E0F999FECF32BD21BDD5
:1030F000F89A80B580832438310541F131962F5FED
:103100003F4FF2CF0E94E33F882309F0F4C80E94AA
:10311000482460935106709352068093530690930F
:1031200054068091110383FDE6C8D2018D919C91D4
:10313000119792FFE0C85F966D917D918D919C9162
:1031400092970E946B7E0E94E942D5C8CB01BA01DA
:103150002FE632E143E85AE30E94798029813A81DF
:103160004B815C810E94F07C9B01AC018CE394E07C
:1031700061EE72E002E00E9483508CE394E06EED19
:1031800072E00E940E4DE091BD02F091BE02638597
:1031900074858585968520E030E040E751E40E9403
:1031A000D77F18160CF439C5AA24BB246501F999F8
:1031B000FECF8DE790E092BD81BDF89A50B5F999A8
:1031C000FECF8EE790E092BD81BDF89A40B5F999A7
:1031D000FECF8FE790E092BD81BDF89A30B5F999A6
:1031E000FECF80E890E092BD81BDF89A20B5852F92
:1031F000942FA32FB22FA80EB91ECA1EDB1EC60124
:10320000B50120E831E541E050E00E94A481922E12
:10321000832E742E652E622F732F842F952F20E816
:103220003EEA4EEF5FEF0E944F817B018C01EA0C7A
:10323000FB1C0C1D1D1D8CE394E06FEC72E0292D2E
:10324000382D472D562D0E94A64EC801B70120E10A
:103250003EE040E050E00E94A481D22EC32EB42E66
:10326000A52E8CE394E068EC72E00E94A64E6D2DD2
:103270007C2D8B2D9A2D20EF31EF4FEF5FEF0E94C9
:103280004F81E60EF71E081F191FC801B7012CE376
:1032900030E040E050E00E94A4818CE394E060ECD8
:1032A00072E00E94A64E8CE394E06BEB72E00E9409
:1032B0000E4D0C947B11F1E0263F3F0709F469C3E2
:1032C000275F314011F00C947B110E94B82A0C94B6
:1032D0007B11D2FC02C00C947B11F201878D90A16E
:1032E000A1A1B2A1181619061A061B060CF481E05A
:1032F0008093C1020C947B11D2FCC3C48FEF90E089
:103300006D2D66956695669561700E942F110C94DF
:103310007B116D2D669566956695617080E090E0F5
:103320000E942F110C947B11D2FCC1C460E070E0AC
:1033300086E193E4D3FCAFC440E050E00E944B43ED
:103340000C947B118091A7059091A805A091A905E7
:10335000B091AA058093430690934406A093450636
:10336000B09346068091AB059091AC05A091AD0558
:10337000B091AE058093470690934806A093490606
:10338000B0934A068091AF059091B005A091B10528
:10339000B091B20580934B0690934C06A0934D06D6
:1033A000B0934E060C947B11C3FE0DC0F2018285D2
:1033B0009385A485B5858093C5029093C602A0939A
:1033C000C702B093C802C4FE0DC0F201868597857E
:1033D000A089B1898093C9029093CA02A093CB02BD
:1033E000B093CC02C5FE0DC0F20182899389A489F5
:1033F000B5898093CD029093CE02A093CF02B09373
:10340000D002C6FE0EC020914D0330914E03F20152
:1034100086899789A08DB18DF90181879287A387CD
:10342000B4870E945F790C947B11D2FE59C4D201FB
:103430005F966D917D918D919C91929728EE33E0EE
:1034400040E050E00E944F81609312037093130399
:1034500080931403909315030C947B11D2FEF6C352
:10346000F201678D70A181A192A128EE33E040E0C6
:1034700050E00E944F8160935506709356068093EA
:103480005706909358060C947B110E94E33F8823C3
:1034900011F00C947B110E944824609351067093A4
:1034A000520680935306909354068091110383FF34
:1034B00002C00C947B110E94251180904D039090C6
:1034C0004E03F2012081318131FF07C0868D8823B0
:1034D00021F44EE0842E42E0942E32FDFDC4D4014E
:1034E000D0966D917D918D919C91D397D4962D918D
:1034F0003D914D915C91D7970E94EF7C7B018C01AF
:1035000020E030E040E050E00E94D77F18160CF039
:10351000D6C4C801B70120E030E040E050E40E948A
:10352000C97D882314F40C947B117724F40126A51B
:1035300037A584A595A58217930714F4772473946F
:103540000E9448246D8F7E8F8F8F98A31DA21EA28C
:103550001FA218A610E00E94482469A37AA38BA397
:103560009CA3DC01CB012D8D3E8D4F8D58A1821B7C
:10357000930BA40BB50B895E9340A040B04008F0BC
:10358000D8C30E940A1180914D0390914E03881672
:10359000990609F4FBC38DA19EA1AFA1B8A5009720
:1035A000A105B105E1F5772009F4CEC3D401D49685
:1035B0006D917D918D919C91D79720E030E040E016
:1035C0005FE30E94EF7C9B01AC01F40160A971A94B
:1035D00082A993A90E94D77F87FDBDCFD4015F96B2
:1035E0006D917C919097882777FD8095982F28EE94
:1035F00033E040E050E00E944F8129A13AA14BA165
:103600005CA1260F371F481F591F2DA33EA34FA3B0
:1036100058A7211531054105510509F49CCF8DA10D
:103620009EA1AFA1B8A529A13AA14BA15CA1821B83
:10363000930BA40BB50B80509449A543B74708F4EE
:103640008ACF112311F40C948A1280914D0390912A
:103650004E038816990611F00C948A1200D000D0FF
:103660000DB71EB70F5F1F4FD40193966D917C91DC
:103670009497882777FD8095982F0E946B7E2091E4
:10368000D1023091D2024091D3025091D4020E94D3
:1036900079800E94387E5B016C01F40187859089F6
:1036A000A189B289F80180839183A283B3831482B4
:1036B000158260E070E080E090E020E030E040E0E3
:1036C00050E0EE24FF2487010E94DD6B2DB73EB74A
:1036D0002A5F3F4F0FB6F8943EBF0FBE2DBF0C942C
:1036E0008A12C3FE0DC0F20182859385A485B5853B
:1036F00080931A0690931B06A0931C06B0931D0698
:10370000C5FE0DC0F20182899389A489B589809391
:103710001E0690931F06A0932006B0932106C6FCB8
:10372000E6C220911A0630911B0640911C0650916A
:103730001D068CE394E061E872E002E00E94835091
:1037400020911E0630911F064091200650912106BF
:103750008CE394E069E772E00E9466500C947B1160
:1037600017FB109517F91095C8C817FB109517F996
:103770001095D7FAD094D7F8D094CAC8213531051E
:1037800049F02235310511F00C947B11109250064E
:103790000C947B110E942511269A2E9A0C947B1171
:1037A0002F3D310509F4E2C0273E310511F00C949C
:1037B0007B11D2FE10C0F201878D90A1A1A1B2A110
:1037C000B7FD09C083309105A105B10524F48093AC
:1037D000D705C080D180C3FE19C0D2011A96ED90E2
:1037E000FD900D911C911D97C801B70120E030E0BC
:1037F00040E050E00E94D77F882344F0E092CB0560
:10380000F092CC050093CD051093CE05C4FE17C0F1
:10381000F201E684F78400891189C801B70120E02C
:1038200030E040E050E00E94D77F882344F0E092EF
:10383000CF05F092D0050093D1051093D205C5FEB7
:103840001EC0D2015296ED90FD900D911C9155979E
:103850002091CF053091D0054091D1055091D205EE
:103860005058C801B7010E94D77F882344F0E092E6
:10387000D305F092D4050093D5051093D605D0FE5C
:1038800021C0F201E28CF38C048D158DC801B701C3
:1038900020E030E040E050E00E94D77F882394F0A1
:1038A000C801B70120E030E048EC52E40E94C97D35
:1038B000181644F0E092D805F092D9050093DA0585
:1038C0001093DB05E0914D03F0914E0380810E943F
:1038D00041478091D705882309F41CC2813009F43F
:1038E00021C28CE394E063E372E00E94714C20916A
:1038F000CB053091CC054091CD055091CE058CE3A0
:1039000094E063E272E002E00E9483502091CF05D0
:103910003091D0054091D1055091D2058CE394E0CF
:1039200066E172E00E9483502091D3053091D40566
:103930004091D5055091D6058CE394E067E072E0A4
:103940000E9483508091D705823009F04EC92091A2
:10395000D8053091D9054091DA055091DB058CE30B
:1039600094E067EF71E00E9483503FC9D2FC02C02F
:103970000C947B118091910590919205F201278D15
:1039800030A1820F931F90939205809391050C9420
:103990007B110E9455278CE394E06AE871E00E9455
:1039A0000E4D0C947B1151E02E35350749F020590E
:1039B000314011F00C947B110E9425110C947B1165
:1039C0008CE394E068E771E00E940E4D0C947B114B
:1039D0002E3B310509F479C0293C310511F00C94D6
:1039E0007B11C3FE19C0F2016285738584859585BC
:1039F0002091C5023091C6024091C7025091C80281
:103A00000E9479800E943D7E6093700570937105DD
:103A10008093720590937305C4FE1BC0D2011E965D
:103A20006D917D918D919C9151972091C90230911A
:103A3000CA024091CB025091CC020E9479800E9430
:103A40003D7E609374057093750580937605909321
:103A50007705C5FE19C0F201628973898489958949
:103A60002091CD023091CE024091CF025091D002F0
:103A70000E9479800E943D7E60937805709379055D
:103A800080937A0590937B05C6FC02C00C947B1151
:103A9000D20156966D917D918D919C91599720916F
:103AA000D1023091D2024091D3025091D4020E94AF
:103AB00079800E943D7E60937C0570937D058093A4
:103AC0007E0590937F050C947B1193FF02C00C94AC
:103AD0007B110E942511D2018D919C91119792FD2D
:103AE000CCC1609184027091850280918602909190
:103AF0008702209188023091890240918A02509178
:103B00008B020E94EF7C7B018C0120E030E040E0E2
:103B100050E00E94D77F18160CF0A2C1C801B7016F
:103B200020E030E040E450E40E94C97D882314F492
:103B30000C947B110E9448247B018C0160918402CB
:103B400070918502809186029091870220E030E09A
:103B500040E05FE30E94F07C9B01AC016091880231
:103B60007091890280918A0290918B020E94D77F86
:103B7000181604F10C948A120E940A1160918402B2
:103B800070918502809186029091870220E030E05A
:103B900040E05FE30E94F07C20918802309189022E
:103BA00040918A0250918B020E94C97D87FD02C01C
:103BB0000C948A120E9448246E197F09800B910B85
:103BC000695E734080409040B8F20E94D1100E941C
:103BD00048247B018C01D0CF61EB72E0DBC880917F
:103BE000120690911306A0911406B09115068CABA5
:103BF0009DABAEABBFAB72C9F201878D90A1A1A105
:103C0000B2A1B7FF02C00C947B110097A105B105CA
:103C100009F423C1EDE7F2E02ACA0E94482420916A
:103C20002D0630912E0640912F0650913006621BD2
:103C3000730B840B950B28EE33E040E050E00E94BC
:103C40008281C901DA015C016D01B1CA1092550689
:103C50001092560610925706109258060C947B113B
:103C6000E0914D03F0914E03D2011E962D913D91AE
:103C70004D915C91519725A336A347A350A70C946F
:103C8000EA15F201878D90A13BCB84E690E00E947B
:103C90003B0C0C947B11D20193964D915C919497BF
:103CA000423051050CF44ACB42E050E047CBF201E0
:103CB000678D70A1882777FD8095982F0E946B7E75
:103CC00039CB67E972E084C864EA72E073C86AE8D5
:103CD00072E08CC884E690E00E94210C0C947B1169
:103CE0000E94251181E00E94B5780C947B11E0912F
:103CF0004D03F0914E03D20156962D913D914D9179
:103D00005C915997278B308F418F528F80810E9411
:103D1000414707CD8CE394E064E572E00E940E4DCC
:103D20000C947B118CE394E062E472E00E94714C8D
:103D3000DECD0E94D11089A19AA1ABA1BCA18D8F2B
:103D40009E8FAF8FB8A31DCCD401D4966D917D9179
:103D50008D919C91D79720E030E040E05FE30E9496
:103D6000F07C9B01AC01F40160A971A982A993A91F
:103D70000E94C97D18160CF4EECB30CC8CE394E095
:103D80006AEA73E00E940E4D0C948A12D401939655
:103D9000ED90FC9094971E141F040CF0FCCB1123A3
:103DA00009F0F9CB772009F4F6CB91966D917C91CF
:103DB0009297882777FD8095982F0E946B7E9B01B4
:103DC000AC01F40160A971A982A993A90E94D77FCF
:103DD00018160CF0E0CB00D000D00DB71EB70F5F67
:103DE0001F4F662777276E197F09882777FD8095F3
:103DF000982F0E946B7E2091D1023091D202409187
:103E0000D3025091D4020E9479800E94387E5B01D7
:103E10006C01F40187859089A189B289F8018083BA
:103E20009183A283B3831482158260E070E080E006
:103E300090E020E030E040E050E0EE24FF248701F5
:103E40000E94DD6B11E02DB73EB72A5F3F4F0FB6E2
:103E5000F8943EBF0FBE2DBF9ECBE7E3F2E007C94B
:103E6000C801B70120E030E040E450EC0E94D77F69
:103E7000181614F40C947B115DCE5F966D917D91B4
:103E80008D919C9192970E946B7E0E94E94229CE6F
:103E90000E942511D2018D919C910C947E16F20105
:103EA000678D70A181A192A10E946B7EE0914D036C
:103EB000F0914E0340810E9462460C947B11C80130
:103EC000B70120E030E040E050EC0E94D77F1816A8
:103ED00014F40C947B1129CBD2015F966D917D91E6
:103EE0008D919C9192970E946B7EF40140810E947B
:103EF0006246F5CA0E9460240E94387B0E94537972
:103F000080E090E0892B29F00E9400000E94537904
:103F1000FBCF0E9453790E945379FBCFCF92DF925F
:103F2000EF92FF920F931F93CF93DF937C016B016E
:103F3000EA0141155105D9F000E010E0D6016D917C
:103F40006D01D701ED91FC910190F081E02DC70149
:103F50001995080F191F219789F7C801DF91CF9193
:103F60001F910F91FF90EF90DF90CF90089500E0A8
:103F700010E0F3CFDC01ED91FC910190F081E02D98
:103F800019950895EF92FF920F931F938C01DC0116
:103F9000ED91FC910190F081E02D6DE019957C018F
:103FA000D801ED91FC910190F081E02DC8016AE00B
:103FB00019959C012E0D3F1DC9011F910F91FF9076
:103FC000EF900895CF93DF93EC016115710599F09F
:103FD000DB010D900020E9F71197A61BB70BE881D4
:103FE000F9810280F381E02DAD0119959C01C90191
:103FF000DF91CF91089520E030E0C901DF91CF91AA
:1040000008954F925F927F928F929F92AF92BF924C
:10401000CF92DF92EF92FF920F931F93DF93CF9394
:10402000CDB7DEB7A1970FB6F894DEBF0FBECDBFF8
:104030002C01742ECB01223008F460C0822E99240A
:10404000AA24BB2419A221E2C22ED12CCC0EDD1E43
:104050000BC0405DF6014083E114F1040105110538
:1040600001F17E2C5F2DC801672D752FA5019401EC
:104070000E94828179018A01C801B701A5019401DA
:104080000E944F81472D461B0894C108D1084A3031
:1040900004F3495CF6014083E114F10401051105C4
:1040A00001F7C114D10481F1D6010D900020E9F788
:1040B0001197AC19BD09F20180819181FC01228127
:1040C0003381C201B601AD01F90119959C01C90105
:1040D000A1960FB6F894DEBF0FBECDBFCF91DF9192
:1040E0001F910F91FF90EF90DF90CF90BF90AF9016
:1040F0009F908F907F905F904F9008953AE0832E2D
:10410000912CA12CB12C9ECF20E030E0E0CFDC013F
:104110002115310519F00E9401200895ED91FC91BF
:104120000190F081E02D642F19950895EF92FF9290
:104130000F931F939A017B0100E010E0B801A701E3
:104140000E9487201F910F91FF90EF900895CF92CA
:10415000DF92EF92FF920F931F93CF93DF93EC01C7
:104160006A017B0121153105B9F02A30310539F496
:1041700077FD1BC02AE00E9401209C0103C00E9421
:1041800001209C01C901DF91CF911F910F91FF90F8
:10419000EF90DF90CF900895E881F9810190F08150
:1041A000E02D642F19959C01EDCFE881F9810190F4
:1041B000F081E02D6DE219958C0144275527BA0155
:1041C0004C195D096E097F09CE012AE00E94012089
:1041D0009801280F391FD6CFEF92FF920F931F93AC
:1041E0007C010E94A7208C01C7010E94C21F9C0174
:1041F000200F311FC9011F910F91FF90EF9008957B
:10420000EF92FF920F931F937B019A010027F7FC17
:104210000095102FB801A7010E94A7201F910F91B0
:10422000FF90EF900895CF92DF92EF92FF920F935D
:104230001F936C017B019A010027F7FC0095102F5A
:10424000B801A7010E94A7208C01C6010E94C21FCD
:10425000080F191FC8011F910F91FF90EF90DF9079
:10426000CF900895CF93DF93EC016115710599F01C
:10427000DB010D900020E9F71197A61BB70BE88131
:10428000F9810280F381E02DAD0119959C01C901EE
:10429000DF91CF91089520E030E0C901DF91CF9107
:1042A00008954F925F927F928F929F92AF92BF92AA
:1042B000CF92DF92EF92FF920F931F93CF93DF93F2
:1042C0004C015A016B01722ECB01BA01A601950176
:1042D0000E943381882309F0DDC0C0E0D0E0860170
:1042E0007501E89417F9C801B7012FEF3FEF4FE7C9
:1042F0005FE70E943381882309F4A2C0C1E0D0E0C7
:10430000219709F0ABC0C601B5012FEF3FEF4FE792
:104310005FE40E94D77F18160CF4AEC0C601B50149
:104320002FEF3FEF4FE75FEC0E94C97D88230CF42D
:10433000A3C0C601B50120E030E040E050E00E949B
:10434000C97D87FDAEC044245524772009F4B8C048
:1043500020E030E040E05FE310E0CA01B90120E076
:1043600030E040E251E40E94D07D9B01AC011F5F30
:10437000171598F3C601B5010E94F07C7B018C01F2
:104380000E943D7E5B016C010E94697E9B01AC0135
:10439000C801B7010E94EF7C7B018C01C401B6010A
:1043A000A5012AE030E00E948720EC01D401ED91C4
:1043B000FC910280F381E02DC4016CE072E041E0E9
:1043C00050E01995C80FD91FC40DD51DC801B701FC
:1043D00020E030E040E251E40E9479807B018C01D2
:1043E0000E94387E5B016C01CC24B7FCC094DC2CAD
:1043F000C401B601A5012AE030E00E94A720C80F41
:10440000D91FC601B5010E946B7E9B01AC01C8019A
:10441000B7010E94EF7C7B018C017A94B9F6CE0142
:10442000DF91CF911F910F91FF90EF90DF90CF9090
:10443000BF90AF909F908F907F905F904F90089526
:10444000C801B7012FEF3FEF4FE75FE70E94C97D3B
:1044500018160CF053CF219709F455CFD401ED91E4
:10446000FC910280F381E02DC40164E072E043E03E
:1044700050E01995EC01D3CFD401ED91FC9102806D
:10448000F381E02DC40168E072E043E050E019954B
:10449000EC01C5CFC40160E072E00E94E21FEC01B4
:1044A000BECFD401ED91FC910190F081E02DC401CB
:1044B0006DE219952C01D7FAD094D7F8D09445CF56
:1044C000C601B50120E030E040E05FE30E94F07CEF
:1044D0000E943D7EAB01BC01C4012AE030E00E9495
:1044E0008720EC01C40DD51D9ACF0E94512108955B
:1044F0001F920F920FB60F920BB60F9211242F93AB
:104500003F934F935F936F937F938F939F93AF935B
:10451000BF93EF93FF938091380390913903892BD8
:1045200029F0E0913803F09139031995FF91EF914B
:10453000BF91AF919F918F917F916F915F914F91BB
:104540003F912F910F900BBE0F900FBE0F901F90B9
:1045500018951F920F920FB60F920BB60F9211245F
:104560002F933F934F935F936F937F938F939F937B
:10457000AF93BF93EF93FF9380913A0390913B03E6
:10458000892B29F0E0913A03F0913B031995FF91B3
:10459000EF91BF91AF919F918F917F916F915F91BB
:1045A0004F913F912F910F900BBE0F900FBE0F9028
:1045B0001F9018951F920F920FB60F920BB60F9285
:1045C00011242F933F934F935F936F937F938F9318
:1045D0009F93AF93BF93EF93FF9380913C03909190
:1045E0003D03892B29F0E0913C03F0913D0319959F
:1045F000FF91EF91BF91AF919F918F917F916F91BB
:104600005F914F913F912F910F900BBE0F900FBE76
:104610000F901F9018951F920F920FB60F920BB626
:104620000F9211242F933F934F935F936F937F9338
:104630008F939F93AF93BF93EF93FF9380913E032C
:1046400090913F03892B29F0E0913E03F0913F03C5
:104650001995FF91EF91BF91AF919F918F917F91AC
:104660006F915F914F913F912F910F900BBE0F90E3
:104670000FBE0F901F9018951F920F920FB60F92BA
:104680000BB60F9211242F933F934F935F936F9329
:104690007F938F939F93AF93BF93EF93FF938091FB
:1046A000340390913503892B29F0E0913403F09184
:1046B00035031995FF91EF91BF91AF919F918F9124
:1046C0007F916F915F914F913F912F910F900BBE12
:1046D0000F900FBE0F901F9018951F920F920FB65C
:1046E0000F920BB60F9211242F933F934F935F932A
:1046F0006F937F938F939F93AF93BF93EF93FF93AA
:104700008091360390913703892B29F0E09136038D
:10471000F09137031995FF91EF91BF91AF919F9160
:104720008F917F916F915F914F913F912F910F905A
:104730000BBE0F900FBE0F901F9018951F920F92F7
:104740000FB60F920BB60F9211242F933F934F93F6
:104750005F936F937F938F939F93AF93BF93EF93E9
:10476000FF938091400390914103892B29F0E091C0
:104770004003F09141031995FF91EF91BF91AF91E3
:104780009F918F917F916F915F914F913F912F9169
:104790000F900BBE0F900FBE0F901F9018951F9299
:1047A0000F920FB60F920BB60F9211242F933F93D7
:1047B0004F935F936F937F938F939F93AF93BF9329
:1047C000EF93FF938091420390914303892B29F04B
:1047D000E0914203F09143031995FF91EF91BF914E
:1047E000AF919F918F917F916F915F914F913F9189
:1047F0002F910F900BBE0F900FBE0F901F9018952A
:104800001F920F920FB60F9211242F933F938F9305
:104810009F93AF93BF938091480390914903A091D8
:104820004A03B0914B0330914C030196A11DB11D79
:10483000232F2D5F2D3720F02D570196A11DB11D7F
:1048400020934C038093480390934903A0934A0319
:10485000B0934B038091440390914503A09146038C
:10486000B09147030196A11DB11D8093440390931D
:104870004503A0934603B0934703BF91AF919F9127
:104880008F913F912F910F900FBE0F901F90189511
:104890008FB7F894209148033091490340914A031F
:1048A00050914B038FBFB901CA010895019739F0A8
:1048B000880F991F880F991F02970197F1F70895A4
:1048C000789484B5826084BD84B5816084BD85B5EB
:1048D000826085BD85B5816085BDEEE6F0E08081B2
:1048E00081608083E1E8F0E01082808182608083D3
:1048F000808181608083E0E8F0E080818160808356
:10490000E1EBF0E0808184608083E0EBF0E0808187
:1049100081608083E1E9F0E0808182608083808132
:1049200081608083E0E9F0E0808181608083E1EA5A
:10493000F0E0808182608083808181608083E0EA12
:10494000F0E0808181608083E1E2F1E0808182603B
:104950008083808181608083E0E2F1E080818160FA
:104960008083EAE7F0E080818460808380818260D8
:1049700080838081816080838081806880831092C1
:10498000C10008951F93CF93DF93182FEB0161E0CF
:104990000E94A125209761F1CF3FD10509F444C0C1
:1049A000E12FF0E0E253FB4F8491893009F453C0CA
:1049B0008A3030F5843009F462C08530E8F5823001
:1049C00009F4A1C0833008F078C0813071F484B557
:1049D000806884BDC7BD10C0803109F4A8C0813192
:1049E00009F475C08F3009F47CC0C038D105E4F4F7
:1049F000812F60E00E946326DF91CF911F9108957F
:104A00008D3099F18E3040F78B3009F481C08C30B5
:104A100008F43FC08091A00080628093A000D093F2
:104A2000AB00C093AA00E8CF812F61E00E9463260B
:104A3000DF91CF911F910895873009F45CC08830D1
:104A400090F5863091F68091B00080688093B00038
:104A5000C093B300D1CF809190008062809390008A
:104A6000D0939B00C0939A00C7CF8091A00088602C
:104A70008093A000D093AD00C093AC00BDCF8091D7
:104A80008000806280938000D0938B00C0938A0066
:104A9000B3CF80919000886080939000D0939D0068
:104AA000C0939C00A9CF8091900080688093900073
:104AB000D0939900C09398009FCF80918000806828
:104AC00080938000D0938900C093880095CF809117
:104AD0002001886080932001D0932D01C0932C0188
:104AE0008BCF80912001806880932001D093290191
:104AF000C093280181CF8091B00080628093B00084
:104B0000C093B40079CF84B5806284BDC8BD74CF32
:104B10008091A00080688093A0008091A0008F7B8E
:104B20008093A000D093A900C093A80065CF809186
:104B30002001806280932001D0932B01C0932A0131
:104B40005BCFCF93DF93482F50E0CA0188579B4F2C
:104B5000FC0134914E5B5B4FFA0184918823B9F0DC
:104B600090E0880F991FFC01EC50FC4FA591B49187
:104B7000FC01E25FFB4FC591D491662359F062308E
:104B8000B9F09FB7F8948C91832B8C939FBFDF91E2
:104B9000CF9108952FB7F8948C91932F90958923F6
:104BA0008C938881892388832FBFDF91CF910895CB
:104BB0002FB7F8948C91932F909589238C938881AB
:104BC000832B88832FBFE3CF893009F45EC08A30FE
:104BD00070F08D3009F45FC08E30D0F0803109F470
:104BE0006CC0813109F463C08F30C9F108958430FD
:104BF00009F445C08530B8F08730B9F1883048F500
:104C00008630A1F78091B0008F778093B00008952F
:104C10008B3009F446C08C30B0F08091A0008F7DBD
:104C20008093A0000895823031F1833030F48130D8
:104C3000E9F684B58F7784BD0895809180008F77E1
:104C400080938000089580919000877F80939000EA
:104C50000895809190008F778093900008958091BF
:104C600020018F778093200108958091B0008F7D7F
:104C70008093B000089584B58F7D84BD08958091A0
:104C800080008F7D809380000895809190008F7DBB
:104C90008093900008958091A000877F8093A0006A
:104CA00008958091A0008F778093A000089580914F
:104CB0002001877F809320010895809120018F7DBE
:104CC000809320010895FF920F931F93F62E482F93
:104CD00050E0CA0182539B4FFC012491CA018857BE
:104CE0009B4FFC0104914E5B5B4FFA011491112321
:104CF00099F02223D1F4E12FF0E0EE0FFF1FE25FE5
:104D0000FB4FA591B4919FB7F894FF2049F48C9183
:104D1000009580238C939FBF1F910F91FF90089562
:104D20008C91802B8C939FBFF7CF822F0E94E4251C
:104D3000E2CF90E020E030E041E050E0283631055D
:104D400059F0F999FECF32BD21BDF89A80B5980F80
:104D500088E0403058072CF42F5F3F4F4F5F5F4F84
:104D6000EDCF892F0895F999FECF1FBA92BD81BD6D
:104D700060BD0FB6F894FA9AF99A0FBEF999FECF72
:104D80001FBA019692BD81BD70BD0FB6F894FA9A14
:104D9000F99A0FBE0895F999FECF1FBA92BD81BD51
:104DA00040BD0FB6F894FA9AF99A0FBEF999FECF62
:104DB0001FBA019692BD81BD019750BD0FB6F89400
:104DC000FA9AF99A0FBEF999FECF1FBA029692BDD0
:104DD00081BD029760BD0FB6F894FA9AF99A0FBE9A
:104DE000F999FECF1FBA039692BD81BD70BD0FB673
:104DF000F894FA9AF99A0FBE0895DF93CF9300D0F2
:104E00000F92CDB7DEB749835A836B837C83FE0153
:104E10003196AE014B5F5F4F2191F999FECF1FBADA
:104E200092BD81BD20BD0FB6F894FA9AF99A0FBED3
:104E30000196E417F50781F70F900F900F900F90F0
:104E4000CF91DF910895F999FECF12BC11BCF89A69
:104E500080B5813009F00895F999FECF8BE490E098
:104E600092BD81BDF89A40B5F999FECF8CE490E0EF
:104E700092BD81BDF89A30B5F999FECF8DE490E0EE
:104E800092BD81BDF89A20B5F999FECF8EE490E0ED
:104E900092BD81BDF89A80B54093160330931703F5
:104EA00020931803809319030895EF92FF920F93B4
:104EB0001F9380E092ECA1E0B0E080931603909302
:104EC0001703A0931803B09319031092550610927C
:104ED0005606109257061092580680EC94EDA1E009
:104EE000B0E08093120390931303A0931403B09344
:104EF000150383EB99EDA4ECB2E48093C502909383
:104F0000C602A093C702B093C8028093C9029093CF
:104F1000CA02A093CB02B093CC0280E090E0A0E262
:104F2000B5E48093CD029093CE02A093CF02B093CC
:104F3000D00280E090E0A0E8BFE38093D10290939C
:104F4000D202A093D302B093D40280E090E0A8E410
:104F5000B3E48093D5029093D602A093D702B09386
:104F6000D8028093D9029093DA02A093DB02B09327
:104F7000DC0280E090E0A0EAB0E48093DD02909350
:104F8000DE02A093DF02B093E0020F2EF0E0EF2EDE
:104F9000F0E0FF2EF0EA0F2FF2E41F2FF02DE09249
:104FA000E502F092E6020093E7021093E802E09235
:104FB000E902F092EA020093EB021093EC0280E027
:104FC00090E0A0E4B0E48093ED029093EE02A09311
:104FD000EF02B093F00280E090E0A0EAB1E48093A9
:104FE0001A0690931B06A0931C06B0931D068AE92F
:104FF00099E9A9E9BEE380931E0690931F06A0934A
:105000002006B09321068CED95E0A0E0B0E08093FF
:10501000F1029093F202A093F302B093F402809312
:10502000F5029093F602A093F702B093F80224E6FB
:1050300030E040E050E02093F9023093FA024093D0
:10504000FB025093FC0288EB9BE0A0E0B0E0809371
:10505000010390930203A0930303B093040380938E
:10506000050390930603A0930703B09308032093CE
:10507000090330930A0340930B0350930C031092DF
:10508000D7058DEC9CECACE4BFE38093CB0590930B
:10509000CC05A093CD05B093CE0580E090E0A0ECC8
:1050A000BFE38093CF059093D005A093D105B09333
:1050B000D20520E030E040E050E02093D30530936B
:1050C000D4054093D5055093D60580E090E0A8E440
:1050D000B2E48093D8059093D905A093DA05B093F4
:1050E000DB0571E0709390026FEF6093950260931F
:1050F000960280E090E0A4E4B3E48093970290935A
:105100009802A0939902B0939A028BE794E1A4E0ED
:10511000B2E480939B0290939C02A0939D02B09373
:105120009E0280E090E0A1E9B3E480939F02909317
:10513000A002A093A102B093A2026093A30280E018
:1051400090E0A5E2B3E48093FA059093FB05A09369
:10515000FC05B093FD0580E090E0AFE2B3E48093FE
:10516000020690930306A0930406B0930506E0920E
:105170000A06F0920B0600930C0610930D0620937E
:10518000FE053093FF0540930006509301062093DF
:1051900006063093070640930806509309062093AD
:1051A0000E0630930F06409310065093110620937D
:1051B00036063093370640933806509339062093CD
:1051C0003A0630933B0640933C0650933D062093AD
:1051D0003E0630933F06409340065093410680E0E0
:1051E00090E8AEECB3E48093170290931802A0937A
:1051F0001902B0931A0280E090E0A0EFB1E480932E
:105200001D0290931E02A0931F02B093200280E023
:1052100090E0A0E2B1E48093250290932602A0934F
:105220002702B093280280E090E0AAE7B5E48093DB
:10523000210290932202A0932302B0932402709340
:105240004A028CE880934F028CE38093500280E006
:1052500090E0A0ECB1E48093510290935202A093AD
:105260005302B09354028EEA97E4A1E6BFE3809321
:10527000550290935602A0935702B0935802E092C1
:105280005902F0925A0200935B0210935C02609301
:105290005D021092130210921402109215021092E5
:1052A000160210920F021092100210921102109228
:1052B000120281E090E090932E0280932D0286E905
:1052C00090E09093300280932F021092320210925D
:1052D000310260937B022093330230933402409377
:1052E000350250933602E0914D03F0914E038081D8
:1052F0000E9441470E945F790E946F3C1F910F916D
:10530000FF90EF900895883C910508F40895885C1B
:10531000904064E670E00E946E81AB014F5F5F4F8A
:105320008CE394E06EED7AE00E94FB4C8CE394E019
:1053300060E20E94BA1F08950F931F93CF93DF93EB
:10534000EC018B018CE394E062EC7AE00E94714CFA
:105350008CE394E0BE014AE050E00E9496208CE38A
:1053600094E060E20E94BA1FF999FECFD2BDC1BDA0
:10537000F89A60B58CE394E070E04AE050E00E9457
:1053800000218CE394E060E20E94BA1FCE010E94EB
:1053900083298CE394E0B8010E940E4DDF91CF91F8
:1053A0001F910F9108950F931F93CF93DF93EC01FB
:1053B0008B018CE394E069EC7AE00E94714C8CE301
:1053C00094E0BE014AE050E00E9496208CE394E015
:1053D00060E20E94BA1FF999FECFD2BDC1BDF89A12
:1053E00060B5F999FECF2196D2BDC1BD2197F89A3B
:1053F00070B58CE394E04AE050E00E9400218CE319
:1054000094E060E20E94BA1FCE010E9483298CE3DF
:1054100094E0B8010E940E4DDF91CF911F910F9142
:1054200008950F931F93CF93DF93EC018B018CE3CF
:1054300094E060ED7AE00E94714C8CE394E0BE0150
:105440004AE050E00E9496208CE394E060E20E94E3
:10545000BA1FF999FECFD2BDC1BDF89A40B5F999EE
:10546000FECF2196D2BDC1BD2197F89A50B5F999CA
:10547000FECF2296D2BDC1BD2297F89A60B5F999A8
:10548000FECF2396D2BDC1BD2397F89A70B58CE3A9
:1054900094E02AE030E00E94A7208CE394E060E2F0
:1054A0000E94BA1FCE010E9483298CE394E0B801C8
:1054B0000E940E4DDF91CF911F910F910895EF92B1
:1054C000FF920F931F93DF93CF9300D00F92CDB72E
:1054D000DEB7182F092F7B018CE394E067ED7AE0AB
:1054E0000E94714C8CE394E0612F702F4AE050E0F1
:1054F0000E9496208CE394E060E20E94BA1F812F04
:10550000902F9C01FE013196AE014C5F5F4FF999DF
:10551000FECF32BD21BDF89A80B58083E417F50730
:1055200021F031962F5F3F4FF2CF49815A816B8135
:105530007C818CE394E022E030E00E9475228CE3D1
:1055400094E060E20E94BA1F812F902F0E9483296D
:105550008CE394E0B7010E940E4D0F900F900F90D6
:105560000F90CF91DF911F910F91FF90EF900895D1
:105570008BE490E064E87AE00E94112A81E890E0F0
:105580006FE67AE00E945F2A8DE790E06CE57AE0B2
:105590000E94112A8FE490E06EE37AE00E94112AC3
:1055A00083E590E065E17AE00E94112A83E090E0D3
:1055B00061E07AE00E945F2A87E090E06DEE79E09A
:1055C0000E945F2A8BE090E069ED79E00E945F2AFB
:1055D0008FE090E06DEB79E00E945F2A83E190E03C
:1055E00061EA79E00E945F2A87E190E065E879E06E
:1055F0000E945F2A8BE190E067E679E00E945F2AD3
:105600008FE190E069E479E00E945F2A83E290E014
:105610006BE279E00E945F2A87E290E06AE179E03C
:105620000E945F2A8FE290E067E079E00E945F2AA3
:1056300085E890E067EF78E00E945F2A89E890E0D3
:1056400067EE78E00E945F2A8DE890E067ED78E0F1
:105650000E945F2A81E990E065EC78E00E945F2A71
:1056600085E990E063EB78E00E945F2A89E990E0A9
:1056700061EA78E00E945F2A8DE990E061E978E0D4
:105680000E945F2A81EA90E061E878E00E945F2A48
:1056900085EA90E061E778E00E945F2A83E390E08A
:1056A00064E578E00E945F2A87E390E067E378E0B2
:1056B0000E945F2A8BE390E06AE178E00E945F2A13
:1056C0008FE390E066EF77E00E945F2A83E490E04A
:1056D00062ED77E00E945F2A87E490E06EEA77E06F
:1056E0000E945F2A87E690E062E877E00E949C29AA
:1056F00083E690E064E677E00E945F2A8BE290E028
:1057000069E377E00E945F2A87E590E06EE177E049
:105710000E945F2A8BE590E061E077E00E945F2ABB
:105720008AE690E06AEE76E00E949C298BE690E0A3
:1057300068ED76E00E949C298CE790E066EC76E0CC
:105740000E949C298CE690E067EB76E00E945F2A3D
:1057500080E790E068EA76E00E945F2A84E790E0C4
:1057600069E976E00E945F2A88E790E06FE776E0DB
:105770000E949C2988EC90E062E776E00E945F2A14
:105780008CEC90E06DE576E00E945F2A80ED90E081
:1057900067E476E00E945F2A84ED90E061E376E0C2
:1057A0000E945F2A88ED90E06EE176E00E949C29DD
:1057B00089ED90E060E176E00E949C2985EF90E021
:1057C00062E076E00E949C298AED90E067EF75E048
:1057D0000E945F2A8EED90E06CEE75E00E945F2AD9
:1057E00082EE90E061EE75E00E945F2A86EE90E026
:1057F0006BEC75E00E949C2987EE90E06AEB75E007
:105800000E94112A8BEE90E069EA75E00E94112A4D
:105810008FEE90E060E975E00E94D3298AEF90E076
:105820006AE675E00E94D3298CEF90E064E475E0AD
:105830000E94D3298EEF90E066E275E00E949C29D9
:1058400086EF90E064E175E00E945F2A0895AF92D0
:10585000BF92CF92DF92EF92FF920F931F93DF934D
:10586000CF9300D00F92CDB7DEB760913106709123
:105870003206809133069091340620E030E040E01B
:1058800050E00E94C97D882379F40F900F900F900B
:105890000F90CF91DF911F910F91FF90EF90DF90CC
:1058A000CF90BF90AF9008950E9448249B01AC0117
:1058B000A0902D06B0902E06C0902F06D0903006F6
:1058C000F999FECF8DE790E092BD81BDF89AE0B5E1
:1058D000F999FECF8EE790E092BD81BDF89A70B540
:1058E000F999FECF8FE790E092BD81BDF89A60B53F
:1058F000F999FECF80E890E092BD81BDF89A80B51D
:10590000EE2EF72E062F182F2A193B094C095D0998
:10591000CA01B90128EE33E040E050E00E948281E4
:10592000C901DA018E0D9F1DA01FB11F392FAD01D6
:10593000282FF999FECF1FBA8DE790E092BD81BD67
:1059400020BD0FB6F894FA9AF99A0FBEF999FECFD6
:105950001FBA8EE790E092BD81BD30BD0FB6F894BE
:10596000FA9AF99A0FBEF999FECF1FBA8FE790E025
:1059700092BD81BD40BD0FB6F894FA9AF99A0FBE58
:10598000F999FECF1FBA80E890E092BD81BD50BD6D
:105990000FB6F894FA9AF99A0FBE6E010894C11CDA
:1059A000D11CF60121E830E0F999FECF32BD21BDCE
:1059B000F89A80B580832438310521F031962F5F25
:1059C0003F4FF2CFE0903106F0903206009133065F
:1059D00010913406C801B7012FE632E143E85AE3DB
:1059E0000E9479809B01AC0169817A818B819C81C5
:1059F0000E94F07C69837A838B839C83F60181E823
:105A000090E0AE014B5F5F4F2191F999FECF1FBA35
:105A100092BD81BD20BD0FB6F894FA9AF99A0FBED7
:105A20000196E417F50781F78CE394E06DE87AE0DE
:105A3000A801970102E00E94665080E090E0A0E09B
:105A4000B0E08093310690933206A0933306B09372
:105A500034060E94482460932D0670932E0680938E
:105A60002F06909330060E949926282FF999FECF91
:105A700088E690E092BD81BDF89A80B5281709F4B8
:105A800004CFF999FECF1FBA88E690E092BD81BDA0
:105A900020BD0FB6F894FA9AF99A0FBEF6CEFF928F
:105AA0000F931F93DF93CF9300D00F92CDB7DEB744
:105AB000F82E20911603309117034091180350914E
:105AC0001903F999FECF1FBA8BE490E092BD81BD16
:105AD00020BD0FB6F894FA9AF99A0FBEF999FECF45
